:100000000C94E5000C9406010C9406010C94060176
:100010000C9406010C9406010C9406010C94060144
:100020000C9406010C9406010C9406010C94080132
:100030000C9406010C9406010C9406010C94060124
:100040000C9406010C9406010C9406010C94060114
:100050000C9406010C9406010C9406010C94060104
:100060000C9406010C9428010C945A010C9406017E
:100070000C9406010C9406010C9406010C940601E4
:100080000C9406010C9406010C9406010C940601D4
:100090000C94EA010C941C020C9406010C940601C9
:1000A0000C9406010C9406010C9406010C940601B4
:1000B0000C9406010C9406010C9406010C940601A4
:1000C0000C9406010C9406010C9406010C94AC02ED
:1000D0000C94DE020C9406010C946E030C94A003A5
:1000E0000C940601A104A604AB04B004B504BA0440
:1000F000BF04C4041F061F061F06BF06BF06230653
:100100002706BF06BF063206BF06BF065F06CC063F
:10011000D706D706EA06EA06F506F5060007000741
:100120000B070B071207120719071907710720079A
:10013000710737074807590771077107710771077A
:100140007107710771077107710771076C076E07F7
:1001500070070C94C4040C940B070C94CC060C94FC
:10016000AB040C9437070C9471070C94B5040C94F1
:10017000BF060C94A6040C946C070C94D7060C9440
:1001800020070C9419070C94B0040C9459070C9494
:1001900048070C9400070C94BA040C9412070C94B2
:1001A000F5060C941F060C9432060C9470070C9400
:1001B000BF040C94EA060C945F060C946E070C9432
:1001C00027060C94A1040C94230611241FBECFEF24
:1001D000D1E2DEBFCDBF00E00CBF14E0A0E0B2E092
:1001E000EEE5FAE100E00BBF02C007900D92A235E8
:1001F000B107D9F719E0A2E5B4E001C01D92A63B12
:10020000B107E1F70E946D0A0C942D0D0C940000CB
:100210001F920F920FB60F9211248F939F9380918C
:100220005704909158040196909358048093570472
:1002300080915504909156040196909356048093B2
:1002400055049F918F910F900FBE0F901F9018959E
:100250001F920F920FB60F9211240BB60F922F938D
:100260008F939F93EF93FF938091C0009091C6006E
:100270008871E0912A05EF5FEF7120912905E2175F
:1002800039F0E0932A05F0E0E35DFA4F908301C076
:1002900082E090912805982B90932805FF91EF918B
:1002A0009F918F912F910F900BBE0F900FBE0F90CB
:1002B0001F9018951F920F920FB60F9211240BB634
:1002C0000F928F939F93EF93FF9390912C058091C2
:1002D0002B05981769F0E0912B05EF5FEF71E09324
:1002E0002B05F0E0E35BFA4F80818093C60005C0E8
:1002F0008091C1008F7D8093C100FF91EF919F910C
:100300008F910F900BBE0F900FBE0F901F901895FE
:1003100010922C0510922B0510922A051092290597
:1003200097FF04C022E02093C0009F779093C50000
:100330008093C40088E98093C10086E08093C20066
:10034000089590912A0580912905981781F0E091F0
:100350002905EF5FEF71E0932905F0E0E35DFA4FC7
:100360008081909128051092280590E0089580E002
:1003700091E0089590912C059F5F9F7120912B052E
:100380009217E1F3E92FF0E0E35BFA4F808390935B
:100390002C058091C10080628093C1000895CF93A5
:1003A000DF93EC018991882319F00E94BA01FACFFA
:1003B000DF91CF910895CF93DF93FC018491EF01FA
:1003C0002196882321F00E94BA01FE01F7CFDF9128
:1003D000CF9108951F920F920FB60F9211240BB672
:1003E0000F922F938F939F93EF93FF938091C80069
:1003F0009091CE008871E091E504EF5FEF7120915C
:10040000E404E21739F0E093E504F0E0E851FB4F33
:10041000908301C082E09091E304982B9093E304D1
:10042000FF91EF919F918F912F910F900BBE0F90A5
:100430000FBE0F901F9018951F920F920FB60F923C
:1004400011240BB60F928F939F93EF93FF9390918C
:10045000E7048091E604981769F0E091E604EF5F05
:10046000EF71E093E604F0E0E85FFA4F808180935B
:10047000CE0005C08091C9008F7D8093C900FF9197
:10048000EF919F918F910F900BBE0F900FBE0F9029
:100490001F9018951092E7041092E6041092E5045C
:1004A0001092E40497FF04C022E02093C8009F77D5
:1004B0009093CD008093CC0088E98093C90086E0BA
:1004C0008093CA0008959091E5048091E404981700
:1004D00081F0E091E404EF5FEF71E093E404F0E079
:1004E000E851FB4F80819091E3041092E30490E087
:1004F000089580E091E008959091E7049F5F9F71D7
:100500002091E6049217E1F3E92FF0E0E85FFA4F5B
:1005100080839093E7048091C90080628093C90032
:100520000895CF93DF93EC018991882319F00E94FD
:100530007C02FACFDF91CF910895CF93DF93FC0136
:100540008491EF012196882321F00E947C02FE0114
:10055000F7CFDF91CF9108951F920F920FB60F92B0
:1005600011240BB60F922F938F939F93EF93FF93CA
:100570008091D0009091D6008871E091A004EF5F47
:10058000EF7120919F04E21739F0E093A004F0E0AE
:10059000ED55FB4F908301C082E090919E04982B13
:1005A00090939E04FF91EF919F918F912F910F90C7
:1005B0000BBE0F900FBE0F901F9018951F920F92B9
:1005C0000FB60F9211240BB60F928F939F93EF9358
:1005D000FF939091A2048091A104981769F0E09193
:1005E000A104EF5FEF71E093A104F0E0ED53FB4F46
:1005F00080818093D60005C08091D1008F7D80934B
:10060000D100FF91EF919F918F910F900BBE0F90B2
:100610000FBE0F901F9018951092A2041092A10483
:100620001092A00410929F0497FF04C022E0209330
:10063000D0009F779093D5008093D40088E9809371
:10064000D10086E08093D20008959091A00480911B
:100650009F04981781F0E0919F04EF5FEF71E093A2
:100660009F04F0E0ED55FB4F808190919E04109225
:100670009E0490E0089580E091E008959091A20496
:100680009F5F9F712091A1049217E1F3E92FF0E0A1
:10069000ED53FB4F80839093A2048091D100806240
:1006A0008093D1000895CF93DF93EC018991882343
:1006B00019F00E943E03FACFDF91CF910895CF93B6
:1006C000DF93FC018491EF012196882321F00E94A1
:1006D0003E03FE01F7CFDF91CF9108951F920F9255
:1006E0000FB60F9211240BB60F922F938F939F93F7
:1006F000EF93FF9380913001909136018871E091E2
:100700005B04EF5FEF7120915A04E21739F0E09338
:100710005B04F0E0E25AFB4F908301C082E09091CD
:100720005904982B90935904FF91EF919F918F91C9
:100730002F910F900BBE0F900FBE0F901F9018952A
:100740001F920F920FB60F9211240BB60F928F9338
:100750009F93EF93FF9390915D0480915C049817B1
:1007600069F0E0915C04EF5FEF71E0935C04F0E00E
:10077000E258FB4F80818093360105C080913101A2
:100780008F7D80933101FF91EF919F918F910F9019
:100790000BBE0F900FBE0F901F90189510925D0426
:1007A00010925C0410925B0410925A0497FF04C0EC
:1007B00022E0209330019F7790933501809334019C
:1007C00088E98093310186E0809332010895909109
:1007D0005B0480915A04981781F0E0915A04EF5F0E
:1007E000EF71E0935A04F0E0E25AFB4F8081909160
:1007F00059041092590490E0089580E091E0089522
:1008000090915D049F5F9F7120915C049217E1F3CA
:10081000E92FF0E0E258FB4F808390935D048091D4
:1008200031018062809331010895CF93DF93EC0111
:100830008991882319F00E940004FACFDF91CF91AB
:100840000895CF93DF93FC018491EF0121968823D3
:1008500021F00E940004FE01F7CFDF91CF910895AF
:1008600088E38DB980EE84B980E380930101109212
:100870009B0010929A00E0E9F0E080818062808322
:1008800010929D0010929C0080818860808310925D
:10089000990010929800808180688083E1E9F0E0FF
:1008A00080818261808384E690E0909397008093BA
:1008B00096008CED95E09093890080938800E0E8A5
:1008C000F0E020812068208390938B0080938A0041
:1008D00020812062208390938D0080938C00208162
:1008E00028602083E1E8F0E020812261208320E27B
:1008F0003EE430938700209386009093AB00809372
:10090000AA00E0EAF0E04081406240839093AD00AD
:100910008093AC00808188608083E1EAF0E0808190
:10092000826180833093A7002093A600089590E011
:10093000FC013197E830F10558F5EE58FF4F0C9463
:10094000040D70939B0060939A00089570939D002E
:1009500060939C00089570939900609398000895A7
:100960007093890060938800089570938B00609362
:100970008A00089570938D0060938C0008957093A1
:10098000AB006093AA0008957093AD006093AC0033
:1009900008959FEF980F933060F46536710514F059
:1009A00064E670E06C399FEF7907ACF46CE97FEF97
:1009B00012C09CEF980F953070F4653F91E0790775
:1009C00014F064EF71E06C309EEF790714F46CE082
:1009D0007EEF64527A4F0C9497040F931F93CF933A
:1009E000DF93FB016081DC016C93218111962C93D4
:1009F0001197228112962C93DF01139620E030E0AC
:100A000070E02617370744F44D91EC01C20FD31F55
:100A10004B832F5F3F4FF5CF8C010E5F1E4FE60FCC
:100A2000F71F2381D8012C93EC01CD5FDE4F248189
:100A300028836D5F7F4F0E949D09F801208130E07F
:100A4000322F22274881242B41E02733F3E13F074F
:100A500021F02817390709F040E0842FDF91CF916A
:100A60001F910F910895CF93DF93EC01888190E05F
:100A70000E943E03898190E00E943E038A8190E0BB
:100A80000E943E03CE0103960E945303FE01EE5FD7
:100A9000FE4F808190E00E943E03CD5FDE4F888153
:100AA00090E0DF91CF910C943E03FC012289213428
:100AB000F9F430E027E0A22FB0E0FC01EA0FFB1FC1
:100AC00040814C3209F43F5FA60FB71F17974C9334
:100AD00041E0420F373010F4242FEDCFFB01E40F3B
:100AE000F11D3897108227502093520480E008951A
:100AF00081E00895CF93DF9394E29093B5088093BB
:100B0000B6086093B7084093B808F90129EB38E0BC
:100B1000D9019A2F921B981718F491919D93F9CFB0
:100B2000C82FD0E0BE016D5F7F4F86EB98E00E943A
:100B30009D09CB54D74F9C838D8385EB98E0DF9143
:100B4000CF910895EF92FF920F931F93CF93DF936E
:100B50007C018C01C62FD0E02596C8018E199F0913
:100B6000C817D9073CF0F80181918F0190E00E94ED
:100B7000BA01F3CFDF91CF911F910F91FF90EF90CA
:100B80000895EF92FF920F931F93CF93DF937C0111
:100B90008C01C62FD0E02596C8018E199F09C81771
:100BA000D9073CF0F80181918F0190E00E943E034B
:100BB000F3CFDF91CF911F910F91FF90EF900895A8
:100BC00020E030E047E060E080E00E947A0560E0ED
:100BD0000C94C1050F931F93CF93DF93CDB7DEB76E
:100BE000CC57D1090FB6F894DEBF0FBECDBF8C0134
:100BF00085E1E4E1F4E0DE01A859BF4F01900D92D8
:100C00008A95E1F789E2E9E2F4E0DE01DF960190FE
:100C10000D928A95E1F7F8018181882321F08A30CD
:100C200009F4ADC05EC1F801428150E04D3051057C
:100C300008F0A5C0FA01E658FF4F0C94040D20E01F
:100C400030E048E007C020E030E045E003C020E0AD
:100C500030E046E060E080E00E947A0560E00E94BB
:100C6000C1058DC084E1FE01E859FF4FDE011196F8
:100C700001900D928A95E1F7FE01FF96DE015596EF
:100C8000CF018996E817F90719F021912D93FACF32
:100C90009E012F5F3F4F49E060E08EE30E947A059E
:100CA0006EE30E94C1059E012F5F3F4F49E060E067
:100CB0008EE30E947A056EE30E94A20560C060E0A8
:100CC00088ED0E94400A99838A838FEF99EF0197FC
:100CD000F1F700C0000061E088ED0E94400A9B83AC
:100CE0008C83EFEFF9EF3197F1F700C0000062E07D
:100CF00088ED0E94400A9D838E838FEF99EF0197C4
:100D0000F1F700C0000063E088ED0E94400A9F8375
:100D1000888760E084ED0E94400A99878A87EFEF18
:100D2000F9EF3197F1F700C0000061E084ED0E9417
:100D3000400A9B878C878FEF99EF0197F1F700C0EE
:100D4000000062E084ED0E94400A9D878E87EFEFED
:100D5000F9EF3197F1F700C0000063E084ED0E94E5
:100D6000400A9F87888B9E012F5F3F4F4DE060E0D8
:100D700080E10E947A0560E10E94A205B2C0F801FC
:100D8000828190E0FC013397E232F10508F0A9C0BE
:100D9000E957FF4F0C94040DF8016381772767FD35
:100DA0007095762F66278481682B84E00AC0F8014D
:100DB0006381772767FD7095762F66278481682B7E
:100DC00085E00E94C9040E94E0051092540410922C
:100DD000530487C0F8016381772767FD7095762FEC
:100DE00066278481682B86E0ECCFF8016381772742
:100DF00067FD7095762F66278481682B87E0E1CFA9
:100E0000F8016381772767FD7095762F66278481C7
:100E1000682B88E0D6CFF8016381772767FD70954E
:100E200081E0CFCFF8016381772767FD709582E07D
:100E3000C8CFF8016381772767FD709583E0C1CF44
:100E4000F8016381772767FD7095762F6627848187
:100E5000682B84E00E94C904F8016581772767FD4B
:100E60007095762F66278681682B85E032C0F80161
:100E700084816381772767FD7095762F6627682BBD
:100E80006115710511F48A9801C08A9A81E021C028
:100E9000F80184816381772767FD7095762F662737
:100EA000682B6115710511F48B9801C08B9A82E053
:100EB00010C0F80184816381772767FD7095762FD4
:100EC0006627682B6115710511F48C9801C08C9A06
:100ED00083E00E94C90479CF8A9803C08B9801C02F
:100EE0008C98C458DF4F0FB6F894DEBF0FBECDBF4D
:100EF000DF91CF911F910F91089520E030E048E0FD
:100F000060E080E00E947A0560E00C94C105299AB7
:100F1000219A2398229A209A8CB580618CBD8CB539
:100F200081608CBD8CB58D7F8CBD8CB581608CBD96
:100F30008CB588608CBD8CB58F7D8CBD8CB5806484
:100F40008CBD8CB584608CBD8DB58FEF8093B50959
:100F500008950DB407FEFDCF8EBD08958EBD0DB46E
:100F600007FEFDCF8EB508951F93CF93DF93182F03
:100F70002898892F0E94AE07C82FD0E0DC2FCC27FD
:100F8000812F0E94AE07289A25E22A95F1F70000EA
:100F90009E01282BC901DF91CF911F9108950895DB
:100FA000CF92DF92EF92FF926A017B019F739C01C7
:100FB000442737FD4095542F211580E2380741051D
:100FC00051051CF0306C4F6F5F6FC701B6010E9476
:100FD000F40CFF90EF90DF90CF9008959C01BC013E
:100FE0007F7080E090E0611548E07407810591050D
:100FF00034F0B90180E090E0706F8F6F9F6F0895BB
:1010000080E096E10E94B40780E090E00E94B4077F
:10101000AC015F7060E070E0411528E052076105A7
:10102000710534F0AC0160E070E0506F6F6F7F6F5E
:10103000CB01BA0168557E498F4F9F4F0E94900C9B
:10104000089580E09AE00E94B40780E090E00E945A
:10105000B40741E050E060E070E00E94D0070E94D9
:10106000900C0E945D0C089580E89EEB0C94B407F0
:1010700082E09EEB0C94B40780E096E50E94B407F2
:1010800080E090E00E94B40721E08531904409F0AF
:1010900020E0822F0895CF93DF93EC0180E09EE360
:1010A0000E94B40780E090E00E94B407998388838F
:1010B00080E090E00E94B4079B838A8380E090E008
:1010C0000E94B4079D838C8380E090E00E94B40767
:1010D0009F838E8380E090E00E94B4079987888781
:1010E00080E090E00E94B4079B878A8780E090E0D0
:1010F0000E94B4079D878C8780E090E00E94B4072F
:101100009F878E8780E090E00E94B407998B888B40
:1011100080E090E00E94B4079B8B8A8B80E090E097
:101120000E94B4079D8B8C8B80E090E00E94B407F6
:101130009F8B8E8B81E090E0DF91CF9108958DE7BA
:1011400096E00E944B0841E050E060E070E0809142
:101150007D0690917E060E94D0077093950660935D
:10116000960641E050E060E070E080917F0690914B
:1011700080060E94D007709397066093980641E01E
:1011800050E060E070E080918106909182060E94BC
:10119000D0077093990660939A0641E050E060E0B2
:1011A00070E080918306909184060E94D00770932E
:1011B0009B0660939C0641E050E060E070E0809107
:1011C0008506909186060E94D00770939D066093D5
:1011D0009E0641E050E060E070E0809187069091CB
:1011E00088060E94D00770939F066093A00641E096
:1011F00050E060E070E08091890690918A060E943C
:10120000D0077093A1066093A20641E050E060E031
:1012100070E080918B0690918C060E94D0077093AD
:10122000A3066093A40641E050E060E070E0809186
:101230008D0690918E060E94D0077093A50660934C
:10124000A60641E050E060E070E080918F0690914A
:1012500090060E94D0077093A7066093A80620917D
:10126000910630919206C9019F70A0E0B0E081150F
:1012700048E09407A105B10534F0C901A0E0B0E051
:10128000906FAF6FBF6F9093A9068093AA062091CD
:10129000930630919406C9019F70A0E0B0E08115DB
:1012A00048E09407A105B10534F0C901A0E0B0E021
:1012B000906FAF6FBF6F9093AB068093AC060895AD
:1012C00080919B0680936D0580919C0680936E05AE
:1012D00080919D0680936F0580919E068093700596
:1012E00080919F06809371058091A006809372057E
:1012F0008091A306809373058091A4068093740562
:101300008091A506809375058091A6068093760549
:101310008091AB06809377058091AC068093780529
:101320000895FB0190838183089581E096EB0E94EC
:10133000B40780E097EB0C94B407DC0120E030E0C8
:101340008FEF9FEF2617370781F0ED91492F552733
:10135000E827F0E0EE0FFF1FE050FE4F8081918103
:10136000842795272F5F3F4FEDCF08951092B90046
:1013700088E48093B800089594EA9093BC0090911B
:10138000BC0097FFFCCF9091B900987F983021F076
:10139000903111F081E008958093BB0084E8809340
:1013A000BC008091BC0087FFFCCF8091B900887F92
:1013B000883111F0803471F780E0089524EA34E830
:1013C00044E92093BC009091BC0097FFFCCF909122
:1013D000B900987F983011F0903199F78093BB0055
:1013E0003093BC009091BC0097FFFCCF9091B90066
:1013F000987F903211F0983539F44093BC00909169
:10140000BC0094FDFCCFDDCF08950C94BC0984E9A9
:101410008093BC008091BC0084FDFCCF0895809334
:10142000BB0084E88093BC008091BC0087FFFCCFA8
:101430009091B900987F81E0983209F480E0089596
:1014400084EC8093BC008091BC0087FFFCCF80912E
:10145000BB00089584E88093BC008091BC0087FFA6
:10146000FCCF8091BB000895CF930E94BC09C82F88
:1014700086E00E940F0A0E94070A8C2FCF910895E0
:101480001F93CF93DF931F92CDB7DEB7182F6983D9
:101490000E94BC096981811107C020E2629FC001DE
:1014A000112484680E940F0A81E0810F0E94BC0908
:1014B00081110AC00E94200A182F0E942A0A8983DB
:1014C0000E94070A898102C080E010E090E0912B21
:1014D0000F90DF91CF911F910895CF93DF93CDB7F8
:1014E000DEB7C056DE400FB6F894DEBF0FBECDBFEC
:1014F00010925404109253048FEF80930B018FE0ED
:1015000080930A0111BA8CE180BB0E9430040E94D2
:1015100087070E94B60988ED0E94340A84ED0E9474
:10152000340A80E190E00E94880189E190E00E9405
:101530000C0387E690E00E94CE03809168008460EF
:101540008093680080916D00806880936D0078942E
:101550000E9434082FEF89E698E1215080409040A6
:10156000E1F700C0000080E094E00E9415042FEF36
:1015700089E698E1215080409040E1F700C00000EA
:1015800080E190E00E94CE030E9438080E949509F5
:1015900000E010E0E12CF12C812C912C612C712CBD
:1015A000AA24AA94BA2CCC24CA94DC2C0E94A101AF
:1015B0002C010E9425031C010E94E703C15AD14F50
:1015C00099838883CF55DE408091530490915404D1
:1015D0000B97E4F060E070E084E00E94C90460E0F2
:1015E00070E085E00E94C90462E370E081E00E943F
:1015F000C90462E370E082E00E94C90462E370E023
:1016000083E00E94C9048A988B988C988091550435
:10161000909156048232924014F180E090E080175D
:10162000910714F40196FBCF8091530490915404D8
:101630000196909354048093530480910B0192E09F
:10164000892780930B018091550490915604825212
:101650009240909356048093550400E010E08091EE
:10166000570490915804843A9105E4F185E996E095
:101670000E949F080E94600925E936E04DE050E095
:1016800064E170E088E190E00E947A0568E170E032
:101690000E94A2052DE635E04EE050E064E170E0E6
:1016A0008CE090E00E947A05A1E0BCE0AC0FBD1F89
:1016B000A00FB11FFC0182E101900D928A95E1F724
:1016C0000E5E1F4F8091570490915804845A9109DF
:1016D000909358048093570480910B0198E08927D8
:1016E00080930B0150FC3DC0C114D10431F4C20100
:1016F0000596181619063CF029C0C614D7045CF5E7
:10170000D7FC29C0C301E1E0F8E0EC0FFD1FEC0DB0
:10171000FD1D408236012FEF621A720A68167906A3
:10172000A1F4BE016F5F774F81EB97E00E94ED045B
:10173000882371F080910B0191E0892780930B0140
:1017400081EB97E00E94EA0503C063013C0103C0FE
:10175000CC24CA94DC2C84E24816510411F4C12C28
:10176000D12C30FC3DC0A114B10431F4C101059667
:10177000181619063CF029C0A814B9045CF5B7FC8A
:1017800029C0C401E1E0F4E0EC0FFD1FEA0DFB1DF0
:10179000208245012FEF821A920A88169906A1F439
:1017A000BE016F5F7B4F8DEA96E00E94ED048823B7
:1017B00071F080910B0191E0892780930B018DEAF4
:1017C00096E00E94EA0503C054014C0103C0AA241C
:1017D000AA94BA2C84E22816310411F4A12CB12C5D
:1017E000C15AD14F88819981CF55DE4090FDDECE20
:1017F000849729F09FEFE916F90619F4D7CEE12C6A
:10180000F12CE1E0F0E0EC0FFD1FEE0DFF1DC15AE1
:10181000D14F2881CF55DE4020838FEFE81AF80A98
:10182000C15AD14F88819981CF55DE400A9709F07E
:10183000BDCE8D81833509F4B9CE9E012F5F3F4F18
:1018400046E050E06EE170E0C7010E947A05B70102
:101850000E94A205BE01615A724FCE0101960E94FC
:101860005505882321F0EE24EA94FE2C9FCEE090CB
:101870005204F12C9E01215A324F46E050E06EE1B5
:1018800070E0C7010E947A05A7014A5F5F4FBC0163
:1018900081E09CE08C0F9D1F800F911F0E94240D02
:1018A00080915204080F111D0A5F1F4F80910B0198
:1018B00094E0892780930B01D6CF04D06894B111AE
:1018C0008DC0089570D088F09F5790F0B92F992758
:1018D000B751A0F0D1F0660F771F881F991F1AF03B
:1018E000BA95C9F712C0B13081F077D0B1E0089550
:1018F00074C0672F782F8827B85F39F0B93FCCF3D1
:10190000869577956795B395D9F73EF49095809530
:10191000709561957F4F8F4F9F4F0895E89409C050
:1019200097FB3EF490958095709561957F4F8F4F12
:101930009F4F9923A9F0F92F96E9BB279395F69528
:10194000879577956795B795F111F8CFFAF4BB0FA6
:1019500011F460FF1BC06F5F7F4F8F4F9F4F16C00A
:10196000882311F096E911C0772321F09EE8872F94
:10197000762F05C0662371F096E8862F70E060E050
:101980002AF09A95660F771F881FDAF7880F9695C9
:10199000879597F9089557FD9058440F551F59F0B2
:1019A0005F3F71F04795880F97FB991F61F09F3F4C
:1019B00079F087950895121613061406551FF2CF75
:1019C0004695F1DF08C0161617061806991FF1CFC5
:1019D00086957105610508940895E894BB276627EC
:1019E0007727CB0197F90895DB018F939F930E948E
:1019F0000A0DBF91AF91A29F800D911DA39F900DE5
:101A0000B29F900D11240895EE0FFF1F0590F491E1
:101A1000E02D19940E94150DA59F900DB49F900D77
:101A2000A49F800D911D11240895A29FB001B39F22
:101A3000C001A39F700D811D1124911DB29F700DD7
:101A4000811D1124911D0895FB01DC0102C001904C
:0E1A50000D9241505040D8F70895F894FFCF02
:101A5E000000891112239B322446AD573665BF74A0
:101A6E00488CC19D5AAFD3BE6CCAE5DB7EE9F7F850
:101A7E008110080193331A22A5562C47B7753E6480
:101A8E00C99C408DDBBF52AEEDDA64CBFFF976E830
:101A9E0002218B30100299132667AF763444BD5560
:101AAE004AADC3BC588ED19F6EEBE7FA7CC8F5D910
:101ABE0083310A2091121803A7772E66B5543C4540
:101ACE00CBBD42ACD99E508FEFFB66EAFDD874C9F0
:101ADE0004428D5316619F702004A9153227BB3620
:101AEE004CCEC5DF5EEDD7FC6888E1997AABF3BAD0
:101AFE0085520C4397711E60A1142805B3373A2600
:101B0E00CDDE44CFDFFD56ECE9986089FBBB72AAAF
:101B1E0006638F7214409D512225AB343006B917DF
:101B2E004EEFC7FE5CCCD5DD6AA9E3B8788AF19B8F
:101B3E0087730E6295501C41A3352A24B1163807BF
:101B4E00CFFF46EEDDDC54CDEBB962A8F99A708B6F
:101B5E00088481951AA793B62CC2A5D33EE1B7F09F
:101B6E004008C919522BDB3A644EED5F766DFF7C4F
:101B7E00899400859BB712A6ADD224C3BFF136E07F
:101B8E00C1184809D33B5A2AE55E6C4FF77D7E6C2F
:101B9E000AA583B4188691972EE3A7F23CC0B5D15F
:101BAE004229CB38500AD91B666FEF7E744CFD5D0F
:101BBE008BB502A499961087AFF326E2BDD034C13F
:101BCE00C3394A28D11A580BE77F6E6EF55C7C4DEF
:101BDE000CC685D71EE597F42880A1913AA3B3B21F
:101BEE00444ACD5B5669DF78600CE91D722FFB3ECF
:101BFE008DD604C79FF516E4A9902081BBB332A2FF
:101C0E00C55A4C4BD7795E68E11C680DF33F7A2EAE
:101C1E000EE787F61CC495D52AA1A3B03882B193DE
:101C2E00466BCF7A5448DD59622DEB3C700EF91F8E
:101C3E008FF706E69DD414C5ABB122A0B9923083BE
:101C4E00C77B4E6AD5585C49E33D6A2CF11E780F6E
:101C5E0024504D544B3235312C35373630302A32F4
:101C6E00430D0A004665622031362032303137206E
:101C7E0031363A30363A3337006638626163616224
:101C8E003533373739623431653938313136383496
:101C9E003434613434363937366662623633306501
:021CAE00330001
:00000001FF
